:1000000025C03FC03EC03DC03CC03BC03AC039C027
:1000100038C037C036C035C034C033C0CCC031C0A2
:1000200030C02FC02EC02DC02CC02BC02AC029C06C
:1000300028C027C052C155C159C15CC15FC164C14C
:1000400066C16CC170C172C179C17FC111241FBE6C
:10005000CFEFD4E0DEBFCDBF12E0A0E0B1E0EAE335
:10006000FCE102C005900D92A830B107D9F712E06B
:10007000A8E0B2E001C01D92AF32B107E1F76DD642
:10008000DACDBECF3D9A8DE0982F9A95F1F73C9A44
:10009000982F9A95F1F73D98982F9A95F1F73C98FB
:1000A0008A95F1F710920802349905C080910802F0
:1000B0008F5F80930802359905C0809108028F5F99
:1000C000809308028DE0982F9A95F1F7982F9A95D2
:1000D000F1F7982F9A95F1F78A95F1F708953C98E2
:1000E0003D9844984598CEDFCDCF3C9A8DE0982F2F
:1000F0009A95F1F73D9A8A95F1F708953C988DE02D
:10010000982F9A95F1F73D98982F9A95F1F73C9A88
:10011000982F9A95F1F73D9A8A95F1F7089520E086
:100120004DE087FD02C03C9A01C03C983DE0942F11
:100130009A95F1F73D98942F9A95F1F73D9A2F5F94
:10014000283011F0880FEDCF3C98832F8A95F1F776
:100150003D98832F8A95F1F786B13D9A90E024E08F
:10016000969587952A95E1F7817008953C9820E04F
:1001700030E04DE0330F3D98942F9A95F1F7349984
:1001800031603D9A942F9A95F1F72F5F283091F7BF
:10019000882311F43C9A01C03C988DE0982F9A95E1
:1001A000F1F73D98982F9A95F1F73D9A8A95F1F7D6
:1001B0003C98832F08951F920F920FB60F9211242F
:1001C0001F932F933F934F935F936F937F938F93DF
:1001D0009F93AF93BF93EF93FF9380910E02209173
:1001E0000F02309110024091110260911202E091D1
:1001F0001302A091140210911502B82FBF5F91E075
:10020000B81708F090E0F92FF20F81E0F21708F02C
:1002100080E0782F730F81E0731708F080E0582F8B
:10022000540F81E0541708F080E0382F360F81E03A
:10023000361708F080E0282F2E0F81E02E1708F0E7
:1002400080E0982F9A0F81E09A1708F080E0810FE4
:10025000B0930E02F0930F027093100250931102AC
:10026000309312022093130290931402809315028C
:1002700016BCFF91EF91BF91AF919F918F917F91AC
:100280006F915F914F913F912F911F910F900FBEF2
:100290000F901F901895389A399A3A9A3B9A269A55
:1002A000279A559A569A259A249A209A579A409AAC
:1002B000419A429A439A2E9A2F9A5D9A5E9A2D9A63
:1002C0002C9A289A5F9A08954098FC018C309105E9
:1002D00008F042C0E65EFF4F09944098419842986A
:1002E00020C0409A419A429A439A0CC04098419843
:1002F000429A27C04098419A429A1BC0409A419A1C
:10030000429843982E9A17C04098419A02C040984C
:100310004198429843982E982F9A0EC0409A419A3D
:10032000429A439A07C04098419802C04098419A27
:10033000429843982E982F985E980895409A419A33
:10034000429843982E982F980EC040984198429812
:10035000439A2E982F9A07C0409A419A429A439AFC
:100360002E9A2F9A5D9A5E9A0895A2E0B0E0EAEB89
:10037000F1E02ACC5B016C0139014A0180910C0249
:1003800090910D0268EE73E0F8DBCB016AE070E05B
:10039000F4DB9ADF2D98C601B50120E030E04AEF8A
:1003A00054E4BCD77B018C0120E030E040E85FE3FF
:1003B00000D988231CF461E070E020C0C801B701B7
:1003C00020E03FEF4FE757E49ED81816A4F4C6018B
:1003D000B50120E030E040E251E4A0D7DBD588EC65
:1003E00090E005C0FC013197F1F761507040611554
:1003F0007105C1F706C0C801B701CCD5CB01019783
:10040000F1F72D9A80910C0290910D0264E670E054
:10041000B4DBCB016AE070E0B0DB56DF2C98C8019A
:10042000B70120E030E040E85FE3C3D888231CF444
:1004300061E070E020C0C801B70120E03FEF4FE766
:1004400057E461D81816A4F4C601B50120E030E0E5
:1004500040E251E463D79ED588EC90E005C0FC01F2
:100460003197F1F76150704061157105C1F706C011
:10047000C801B7018FD5CB010197F1F72C9A0091F4
:100480000E02F0900F02E090100250901102409086
:1004900012023090130220901402509115025983D9
:1004A0008091160290911702A0911802B091190242
:1004B0009C01AD01A02FA21BAA83F1E00A1708F04E
:1004C000F0E0EF2DE31BA1E0FE1608F0A0E01E2FE8
:1004D0001F1BF1E0E11708F0F0E0AF2BEE2DE41B5D
:1004E000B1E0EE1608F0B0E0FE2FFA1BAF2FF1E0FE
:1004F000EA1708F0F0E0BF2B852D851B91E0581618
:1005000008F090E0482F4B1B21E0841708F020E012
:10051000922B342D391B81E0431608F080E0232D07
:10052000281B81E0321608F080E0922D981B81E0B4
:10053000291608F080E05981581789F4992379F435
:10054000222369F4332359F4442349F4AA2339F4C8
:10055000153028F41430E1F48A81833EC8F080918C
:100560002A0290912B02892B29F010922B021092D3
:100570002A0206C081E090E090932B0280932A0229
:1005800000931602F0921702E0921802509219029C
:1005900080912A0290912B02892B09F445C05D9825
:1005A0005E98C601B501A401930191D620E030E028
:1005B00040E85EE3B3D65B016C0120E030E04AEF37
:1005C00054E4ACD67B018C0120E030E040E85FE3EE
:1005D000F0D788231CF461E070E020C0C801B701A7
:1005E00020E03FEF4FE757E48ED71816A4F4C6017A
:1005F000B50120E030E040E251E490D6CBD488EC65
:1006000090E005C0FC013197F1F761507040611531
:100610007105C1F706C0C801B701BCD4CB01019771
:10062000F1F72F9A5D9A42C02F9A5D9AC601B501E3
:10063000A40193014CD620E030E040E85EE36ED6A2
:100640005B016C0120E030E04AEF54E467D67B01A7
:100650008C0120E030E040E85FE3ABD788231CF456
:1006600061E070E020C0C801B70120E03FEF4FE734
:1006700057E449D71816A4F4C601B50120E030E0CC
:1006800040E251E44BD686D488EC90E005C0FC01F2
:100690003197F1F76150704061157105C1F706C0DF
:1006A000C801B70177D4CB010197F1F780910C0213
:1006B00090910D026AE070E060DACB016AE070E0D0
:1006C0005CDA02DE2898C401B30120E030E04AEF92
:1006D00054E424D67B018C0120E030E040E85FE365
:1006E00068D788231CF461E070E020C0C801B7011E
:1006F00020E03FEF4FE757E406D71816A4F4C401F3
:10070000B30120E030E040E251E408D643D488EC65
:1007100090E005C0FC013197F1F761507040611520
:100720007105C1F706C0C801B70134D4CB010197E8
:10073000F1F7289A80910C0290910D026AE070E026
:100740001CDAC2DD5F98C801B70120E030E040E864
:100750005FE32FD788231CF461E070E020C0C8015C
:10076000B70120E03FEF4FE757E4CDD61816A4F4C9
:10077000C401B30120E030E040E251E4CFD50AD417
:1007800088EC90E005C0FC013197F1F761507040B2
:1007900061157105C1F706C0C801B701FBD3CB01D4
:1007A0000197F1F75F9A2296E2E12ACAEF92FF924F
:1007B0000F931F938C016AE070E0F3D9CB0184DDC5
:1007C0002D9830E7E32E37E1F32EC7010197F1F7BB
:1007D0002D9AC8016AE070E0E4D976DD2C98C70153
:1007E0000197F1F72C9A8AE090E06EDD2898C70116
:1007F0000197F1F7289A8BE090E066DD5F98C701DA
:100800000197F1F75F9A1F910F91FF90EF90089574
:10081000282F30E020773070A901E3E0440F551F06
:10082000EA95E1F7220F331F420F531F64E05595FD
:1008300047956A95E1F78F70840F0895E82FF0E0EF
:1008400040E050E08E2F6AE08BD9292F8E2F6AE08E
:1008500087D9E82F332727FD3095042E02C0220FB9
:10086000331F0A94E2F7F22B4C5F5F4F4031510582
:1008700049F78F2F089539DC80ED51DC8EE04FDC95
:1008800080E24DDC88E04BDCFDCB2FDC80ED47DCEB
:1008900080E045DCF7DB29DC81ED41DC80E066DCD3
:1008A000282F30E020773070A901A3E0440F551FB6
:1008B000AA95E1F7220F331F420F531FE4E055952D
:1008C0004795EA95E1F78F70840F80932E0280E0C0
:1008D0004DDC282F30E020773070A90173E0440F01
:1008E000551F7A95E1F7220F331F420F531F94E0F3
:1008F000559547959A95E1F78F70840F80932D0257
:1009000081E034DC282F30E020773070A901B3E09B
:10091000440F551FBA95E1F7220F331F420F531FA3
:10092000F4E055954795FA95E1F78F70840F809321
:100930002C02A8CBFF920F931F93F82E062F142F93
:10094000D4DB80EDECDB80E0EADB812F77DFE7DBD7
:10095000802F74DFE4DB8F2D71DFE1DB93DB1F91F0
:100960000F91FF900895DF92EF92FF920F931F93E4
:10097000BCDB80EDD4DB81E1D2DB84DBB6DB81ED57
:10098000CEDB80E0F3DBD82E81E0F0DBE82E7ADBF3
:10099000EE1CEE24EE1C85E0E89EE02C1124FF24E2
:1009A0000027F7FC0095102FC801B7012DD620E0D5
:1009B00030E040E05FE3A7D52D2D30E0181614F4A9
:1009C0002F5F3F4FC9011F910F91FF90EF90DF9074
:1009D0000895AF92BF92CF92DF92EF92FF920F9362
:1009E0001F9380911A0290911B02A0911C02B0915A
:1009F0001D028C019D0180910E02F0910F02B091B9
:100A00001002F0901102E0901202D0901302C090F8
:100A10001402A0901502B82EB01A91E08B1508F0C0
:100A200090E08F2F811BE1E0F81708F0E0E0A82F9D
:100A3000A91B91E08A1708F090E0E92B8B2F821B0D
:100A4000F1E0B81708F0F0E0982F9E1BE92F91E035
:100A50008E1708F090E0F92B8F2D831B91E0F8168C
:100A600008F090E0482F4F1B21E0841708F020E0A9
:100A7000922B3E2D391B81E0E31608F080E02D2DEE
:100A8000281B81E0D21608F080E09C2D981B81E0A5
:100A9000C91608F080E0A81689F4992379F4222376
:100AA00069F4332359F4442349F4EE2339F4A23092
:100AB00028F4A13011F58EE58B15F8F4E6DE80916F
:100AC0002C0224E6829FC001112420912D02820F66
:100AD000911D90930D0280930C0280910E029091D3
:100AE0000F02A0911002B091110280931A0290930C
:100AF0001B02A0931C02B0931D021F910F91FF9047
:100B0000EF90DF90CF90BF90AF9008958F929F921B
:100B1000AF92BF92CF92DF92EF92FF920F931F930B
:100B2000F0900E02E0900F02D0901002C0901102DF
:100B3000B0901202A09013029090140280901502BF
:100B400080911E0290911F02A0912002B09121027B
:100B50009C01AD010F2D081BF1E0F01608F0F0E04C
:100B6000EE2DE31BA1E0EE1608F0A0E01E2F1F1BE8
:100B7000F1E0E11708F0F0E0AF2BED2DE41BB1E060
:100B8000DE1608F0B0E0FE2FFA1BAF2FF1E0EA17F7
:100B900008F0F0E0BF2B8C2D851B91E0C81608F003
:100BA00090E0482F4B1B21E0841708F020E0922BA7
:100BB0003B2D391B81E0B31608F080E02A2D281B5D
:100BC00081E0A21608F080E0992D981B81E099162B
:100BD00008F080E0881679F4992369F4222359F407
:100BE000332349F4442339F4AA2329F4112319F4B3
:100BF000063008F493C080910A02882309F086C069
:100C000080910B02882309F081C08091090288231A
:100C100069F44B9B0BC081E080930902F0922202A1
:100C2000E0922302D0922402C09225028091090210
:100C3000882309F46BC04B9969C010920902809116
:100C4000220290912302A0912402B09125029C01DE
:100C5000AD010F2D081BF1E0F01608F0F0E0EE2DCD
:100C6000E31BA1E0EE1608F0A0E01E2F1F1BF1E031
:100C7000E11708F0F0E0AF2BED2DE41BB1E0DE163C
:100C800008F0B0E0FE2FFA1BAF2FF1E0EA1708F0F2
:100C9000F0E0BF2B8C2D851B91E0C81608F090E08A
:100CA000482F4B1B21E0841708F020E0922B3B2DAE
:100CB000391B81E0B31608F080E02A2D281B81E063
:100CC000A21608F080E0992D981B81E0991608F093
:100CD00080E0881681F4992371F4222361F4332390
:100CE00051F4442341F4AA2331F41A3020F419308A
:100CF00031F4053C40F081E080930A0207C01123E3
:100D000011F4033318F081E080930B02F0921E027D
:100D1000E0921F02D0922002C09221021F910F91F7
:100D2000FF90EF90DF90CF90BF90AF909F908F900B
:100D3000089580910B02882329F010920B021092E3
:100D40000A0281E0089580910A02882329F0109216
:100D50000B0210920A0281E008959F92AF92BF9217
:100D6000CF92DF92EF92FF920F931F9394DA83DD7D
:100D70008CDD80916E00826080936E008DE787BD70
:100D800083E085BD7894B4E69B2E60E070E080E45B
:100D900090E49B01AC01E9DA1CDEB8DE80910B0225
:100DA000882309F487C010920B0210920A028091E6
:100DB0000E0290910F02A0911002B0911102809347
:100DC000260290932702A0932802B093290203C021
:100DD000CADD0897EBDC8091260290912702A09152
:100DE0002802B09129028C019D0180910E02F091A0
:100DF0000F02B0911002F0901102E0901202D09018
:100E00001302C0901402A0901502B82EB01A91E0FF
:100E10008B1508F090E08F2F811BE1E0F81708F0A8
:100E2000E0E0A82FA91B91E08A1708F090E0E92BD9
:100E30008B2F821BF1E0B81708F0F0E0982F9E1B73
:100E4000E92F91E08E1708F090E0F92B8F2D831B8E
:100E500091E0F81608F090E0482F4F1B21E084172E
:100E600008F020E0922B3E2D391B81E0E31608F0BC
:100E700080E02D2D281B81E0D21608F080E09C2D0B
:100E8000981B81E0C91608F080E0A81699F4992310
:100E900089F4222379F4332369F4442359F4EE23AB
:100EA00049F4A83238F4A73209F092CF8FE08B15BD
:100EB00008F08ECF80910A02882309F466CF109241
:100EC0000B0210920A020EC010920B0210920A023C
:100ED000822F8F5F68E138D6892F90932C02632F81
:100EE00040E028DD80910A02882329F010920B024D
:100EF00010920A022AC060E070E080E490E420E0F2
:100F000030E040E05FE331DA01DE20912C023091E5
:100F10002D02299DC0011124830F911D90930D0274
:100F200080930C0280910B02882371F6DBCF109224
:100F30000B0210920A02822F8F5F6CE305D690930A
:100F40002D02832F692F40E0F5DC80910A0288236F
:100F500029F010920B0210920A0217CF60E070E0A5
:100F600080E09FE320E030E040E450E4FED9CEDDB5
:100F700030912C0220912D02399DC0011124820F45
:100F8000911D90930D0280930C0280910B02882397
:100F900071F6DBCFEF92FF920F931F937B018C01D1
:100FA00020E030E040E05FE4D9D288237CF0C80143
:100FB000B70120E030E040E05FE45ED17FD39B01E9
:100FC000AC01205030404040504805C0C801B70136
:100FD00075D39B01AC01B901CA011F910F91FF901C
:100FE000EF900895A0E0B0E0E7EFF7E0EDC5DC0199
:100FF0002B01FA019C91923008F439C1EB018881F0
:10100000823008F433C1943069F4843009F02FC180
:1010100011969C9111978981981709F428C1A0E035
:10102000B1E025C1843009F421C18230A9F49230A5
:1010300009F01DC19A01AD0188E0EA010990AE01F5
:10104000E90109929E018150C1F7E201898111965F
:101050009C918923818308C1923009F407C11296BB
:101060002D903C901397EB018A819B811496AD9053
:10107000BD90CD90DC901797EC80FD800E811F8194
:101080009101281B390BB90137FF04C06627772768
:10109000621B730B603271050CF061C012161306EF
:1010A0006CF537014801062E04C096948794779416
:1010B00067940A94D2F721E030E040E050E004C0A9
:1010C000220F331F441F551F6A95D2F7215030401D
:1010D000404050402E213F2140235123211531050E
:1010E0004105510521F021E030E040E050E0790178
:1010F0008A01E628F728082919293CC0232BD1F1B9
:10110000260E371E35014601062E04C0969487949C
:10111000779467940A94D2F721E030E040E050E001
:1011200004C0220F331F441F551F6A95D2F7215068
:101130003040404050402A213B214C215D21211567
:1011400031054105510521F021E030E040E050E05B
:1011500059016A01A628B728C828D9280BC08215CA
:1011600093052CF01C01AA24BB24650103C0EE24C6
:10117000FF24870111969C91D20111968C919817AA
:1011800009F445C0992339F0A80197012A193B09B0
:101190004C095D0906C0A60195012E193F09400BB7
:1011A000510B57FD08C0118233822282248335837C
:1011B000468357831DC081E0818333822282882742
:1011C0009927DC01821B930BA40BB50B84839583B9
:1011D000A683B7830DC0220F331F441F551F2483DE
:1011E00035834683578382819381019793838283DA
:1011F0002481358146815781DA01C9010197A1090E
:10120000B1098F5F9F4FAF4FBF4328F30BC091834E
:1012100033822282EA0CFB1C0C1D1D1DE482F58228
:101220000683178383E0808324813581468157813B
:1012300057FF1AC0C901AA2797FDA095BA2F817040
:101240009070A070B0705695479537952795822B72
:10125000932BA42BB52B84839583A683B78382819C
:101260009381019693838283DF0101C0D201CD0176
:10127000CDB7DEB7E2E1C4C4A0E2B0E0E1E4F9E05A
:10128000AFC469837A838B839C832D833E834F8392
:101290005887E9E0EE2EF12CEC0EFD1ECE010196F2
:1012A000B70181D38E010F5E1F4FCE010596B801A5
:1012B0007AD38A8991E089278A8BC701B801AE0168
:1012C000475E5F4F8FDE9AD2A096E6E0A5C4A0E20B
:1012D000B0E0ECE6F9E084C469837A838B839C8375
:1012E0002D833E834F835887F9E0EF2EF12CEC0ECF
:1012F000FD1ECE010196B70156D38E010F5E1F4F22
:10130000CE010596B8014FD3C701B801AE01475EC3
:101310005F4F68DE73D2A096E6E07EC4A0E2B0E044
:10132000E3E9F9E051C469837A838B839C832D833D
:101330003E834F835887CE010196BE01675F7F4F82
:1013400032D3CE010596BE016F5E7F4F2CD39985B7
:10135000923088F089898230C8F0943019F4823054
:1013600051F404C0843029F4923081F480E091E09B
:10137000C6C0923049F420E09A858A89981321E00A
:101380002A87CE010996BBC0823049F420E09A85B5
:101390008A89981321E02A8BCE014196B0C02D8412
:1013A0003E844F8458886D887E888F88988CEE2480
:1013B000FF248701AA24BB24650140E050E060E0DF
:1013C00070E0E0E0F0E0C10181709070892BE9F0FD
:1013D000E60CF71C081D191D9A01AB012A0D3B1DD7
:1013E0004C1D5D1D80E090E0A0E0B0E0E614F70445
:1013F0000805190520F481E090E0A0E0B0E0BA0112
:10140000A901480F591F6A1F7B1FAA0CBB1CCC1CCB
:10141000DD1C97FE08C081E090E0A0E0B0E0A82AC3
:10142000B92ACA2ADB2A3196E032F10549F0660C66
:10143000771C881C991C5694479437942794C3CFE3
:10144000FA85EA892B893C898B859C85280F391F71
:101450002E5F3F4F17C0CA0181709070892B61F0D9
:1014600016950795F794E79480E090E0A0E0B0E847
:10147000E82AF92A0A2B1B2B7695679557954795ED
:101480002F5F3F4F77FDE7CF0CC0440F551F661FFE
:10149000771F17FD4160EE0CFF1C001F111F21502C
:1014A0003040403090E0590790E0690790E47907B8
:1014B00060F32B8F3C8FDB01CA018F779070A07097
:1014C000B07080349105A105B10561F447FD0AC0F3
:1014D000E114F1040105110529F0405C5F4F6F4FE5
:1014E0007F4F40781A8EFE1711F081E08A8F4D8F62
:1014F0005E8F6F8F78A383E0898FCE0149967ED16E
:10150000A096E2E17DC3A8E1B0E0E8E8FAE068C3B4
:1015100069837A838B839C832D833E834F83588793
:1015200089E0E82EF12CEC0EFD1ECE010196B701EC
:101530003AD28E010F5E1F4FCE010596B80133D20D
:101540008985823038F08989823020F0C701B8015E
:10155000A2D201C08FEF6896E6E05EC3A8E1B0E0DA
:10156000E3EBFAE03DC369837A838B839C832D830D
:101570003E834F83588789E0E82EF12CEC0EFD1E48
:10158000CE010196B7010FD28E010F5E1F4FCE0123
:101590000596B80108D28985823038F08989823071
:1015A00020F0C701B80177D201C08FEF6896E6E05E
:1015B00033C3A8E1B0E0EEEDFAE012C369837A83A9
:1015C0008B839C832D833E834F83588789E0E82E4D
:1015D000F12CEC0EFD1ECE010196B701E4D18E0177
:1015E0000F5E1F4FCE010596B801DDD1898582308F
:1015F00038F08989823020F0C701B8014CD201C08F
:1016000081E06896E6E008C3A8E0B0E0E9E0FBE02E
:10161000E4C29B01AC0183E08983DA01C901882718
:10162000B7FD83959927AA27BB27B82E2115310529
:101630004105510519F482E0898339C08823A9F056
:10164000203080E0380780E0480780E8580729F418
:1016500060E070E080E09FEC2EC0EE24FF24870164
:10166000E21AF30A040B150B02C079018A018EE11C
:10167000C82ED12CDC82CB82ED82FE820F831887AC
:10168000C801B7016CD001971816190684F4082E0A
:1016900004C0EE0CFF1C001F111F0A94D2F7ED824C
:1016A000FE820F831887C81AD90ADC82CB82BA82DD
:1016B000CE010196A3D02896E9E0ABC2ACE0B0E041
:1016C000E3E6FBE091C269837A838B839C83CE013E
:1016D0000196BE016B5F7F4F66D18D81823061F1D3
:1016E000823050F1843021F48E81882351F12EC054
:1016F0002F81388537FD20C06E812F3131051CF0D8
:101700006623F9F023C08EE190E0821B930B2985BC
:101710003A854B855C8504C0569547953795279546
:101720008A95D2F76623B1F0509540953095219572
:101730003F4F4F4F5F4F0EC020E030E040E050E0A1
:1017400009C02FEF3FEF4FEF5FE704C020E030E02C
:1017500040E050E8B901CA012C96E2E061C2EF9284
:10176000FF920F931F937B018C0180E0E81680E0CD
:10177000F80681E0080780E0180788F48FEFE81684
:10178000F1040105110531F028F088E090E0A0E0B7
:10179000B0E017C080E090E0A0E0B0E012C080E0D0
:1017A000E81680E0F80680E0080781E0180728F0D6
:1017B00088E190E0A0E0B0E004C080E190E0A0E02B
:1017C000B0E020E230E040E050E0281B390B4A0B4B
:1017D0005B0B04C016950795F794E7948A95D2F7AA
:1017E000F701E85FFE4F8081281B3109410951094B
:1017F000C9011F910F91FF90EF900895DF92EF9232
:10180000FF920F931F93FC01E480F58006811781FE
:10181000D1808081823048F480E090E0A0E1B0E0A7
:10182000E82AF92A0A2B1B2BA5C0843009F49FC093
:10183000823021F4EE24FF24870105C0E114F10475
:101840000105110519F4E0E0F0E096C062817381B2
:101850009FEF623879070CF05BC022E83FEF261B50
:10186000370B2A3131052CF020E030E040E050E029
:101870002AC0B801A701022E04C076956795579536
:1018800047950A94D2F781E090E0A0E0B0E004C070
:10189000880F991FAA1FBB1F2A95D2F70197A1098C
:1018A000B1098E219F21A023B1230097A105B10585
:1018B00021F081E090E0A0E0B0E09A01AB01282B9C
:1018C000392B4A2B5B2BDA01C9018F779070A070FE
:1018D000B07080349105A105B10539F427FF09C026
:1018E000205C3F4F4F4F5F4F04C0215C3F4F4F4F35
:1018F0005F4FE0E0F0E02030A0E03A07A0E04A07C8
:10190000A0E45A0710F0E1E0F0E079018A0127C075
:101910006038710564F5FB01E158FF4FD801C7013C
:101920008F779070A070B07080349105A105B105DB
:1019300039F4E7FE0DC080E490E0A0E0B0E004C020
:101940008FE390E0A0E0B0E0E80EF91E0A1F1B1F35
:1019500017FF05C016950795F794E794319687E031
:1019600016950795F794E7948A95D1F705C0EE246C
:10197000FF248701EFEFF0E06E2F679566276795EC
:10198000902F9F77D794DD24D7948E2F8695492F5B
:10199000462B582F5D29B701CA011F910F91FF9067
:1019A000EF90DF900895FC01DB014081518122819D
:1019B000622F6F7770E0221F2227221F9381892FC9
:1019C000880F822B282F30E0991F9927991F119695
:1019D0009C93119721153105A9F541155105610514
:1019E000710511F482E037C082E89FEF13969C9353
:1019F0008E9312979A01AB0167E0220F331F441FA9
:101A0000551F6A95D1F783E08C930DC0220F331FC9
:101A1000441F551F12968D919C9113970197139611
:101A20009C938E931297203080E0380780E048071F
:101A300080E4580758F314962D933D934D935C938F
:101A4000179708952F3F310579F441155105610528
:101A5000710519F484E08C93089564FF03C081E05C
:101A60008C9312C01C9210C02F57304013963C9399
:101A70002E93129783E08C9387E0440F551F661FC7
:101A8000771F8A95D1F7706414964D935D936D938B
:101A90007C93179708951F93DC01FB019C91923072
:101AA00008F447C08081823008F443C0943051F478
:101AB00011961C91843099F58181682F70E0611B2B
:101AC00071093FC0843021F0923031F48230B9F195
:101AD0008181882389F12DC011961C911197823044
:101AE000F1F081811817D9F412962D913C9113973A
:101AF000828193818217930794F028173907BCF0ED
:101B000014968D919D910D90BC91A02D24813581CD
:101B100046815781281739074A075B0718F41123B4
:101B200041F00AC082179307A407B50740F41123B8
:101B300019F061E070E005C06FEF7FEF02C060E078
:101B400070E0CB011F910895991B79E004C0991FA3
:101B5000961708F0961B881F7A95C9F78095089507
:101B600087FB082E062687FD819567FD6195ECDFD2
:101B70000EF4919507FC81950895AA1BBB1B51E1BA
:101B800007C0AA1FBB1FA617B70710F0A61BB70BED
:101B9000881F991F5A95A9F780959095BC01CD0192
:101BA000089597FB092E07260AD077FD04D0E5DFBC
:101BB00006D000201AF4709561957F4F0895F6F7CE
:101BC000909581959F4F08952F923F924F925F92EB
:101BD0006F927F928F929F92AF92BF92CF92DF923D
:101BE000EF92FF920F931F93CF93DF93CDB7DEB7A2
:101BF000CA1BDB0B0FB6F894DEBF0FBECDBF099436
:101C00002A88398848885F846E847D848C849B848C
:101C1000AA84B984C884DF80EE80FD800C811B819A
:101C2000AA81B981CE0FD11D0FB6F894DEBF0FBEC9
:0A1C3000CDBFED010895F894FFCF39
:101C3A000000000000000000000102020303030389
:101C4A000404040404040404050505050505050542
:101C5A000505050505050505060606060606060622
:101C6A00060606060606060606060606060606060A
:101C7A0006060606060606060707070707070707F2
:101C8A0007070707070707070707070707070707DA
:101C9A0007070707070707070707070707070707CA
:101CAA0007070707070707070707070707070707BA
:101CBA0007070707070707070808080808080808A2
:101CCA00080808080808080808080808080808088A
:101CDA00080808080808080808080808080808087A
:101CEA00080808080808080808080808080808086A
:101CFA00080808080808080808080808080808085A
:101D0A000808080808080808080808080808080849
:101D1A000808080808080808080808080808080839
:101D2A000808080808080808080808080808080829
:081D3A00080808080808080861
:00000001FF
