:1000000023C03DC03CC03BC03AC039C038C037C037
:1000100036C035C034C033C032C031C0CAC02FC0B2
:100020002EC02DC02CC02BC02AC029C028C027C07C
:1000300026C025C04FC152C156C15CC15FC164C159
:1000400066C16CC170C172C111241FBECFEFD4E074
:10005000DEBFCDBF11E0A0E0B1E0E4EEF9E002C008
:1000600005900D92A030B107D9F711E0A0E0B1E002
:1000700001C01D92A432B107E1F775D4B1C4C0CF5D
:100080003D9A8AE1982F9A95F1F73C9A982F9A9584
:10009000F1F73D98982F9A95F1F73C988A95F1F7EA
:1000A00010920001349905C0809100018F5F809308
:1000B0000001359905C0809100018F5F8093000198
:1000C0008AE1982F9A95F1F7982F9A95F1F7982F42
:1000D0009A95F1F78A95F1F708953C983D984498E0
:1000E0004598CEDFCDCF3C9A8AE1982F9A95F1F7CB
:1000F0003D9A8A95F1F708953C988AE1982F9A9550
:10010000F1F73D98982F9A95F1F73C9A982F9A9588
:10011000F1F73D9A8A95F1F7089520E04AE187FDCD
:1001200002C03C9A01C03C983AE1942F9A95F1F7AD
:100130003D98942F9A95F1F73D9A2F5F283011F052
:10014000880FEDCF3C98832F8A95F1F73D98832F48
:100150008A95F1F786B13D9A90E024E096958795CF
:100160002A95E1F7817008953C9820E030E04AE15B
:10017000330F3D98942F9A95F1F7349931603D9A59
:10018000942F9A95F1F72F5F283091F7882311F477
:100190003C9A01C03C988AE1982F9A95F1F73D98D6
:1001A000982F9A95F1F73D9A8A95F1F73C98832F0D
:1001B00008951F920F920FB60F9211241F932F9341
:1001C0003F934F935F936F937F938F939F93AF93DF
:1001D000BF93EF93FF93809103012091040130912D
:1001E00005014091060160910701E0910801A0918D
:1001F000090110910A01B82FBF5F91E0B81708F00C
:1002000090E0F92FF20F81E0F21708F080E0782FEC
:10021000730F81E0731708F080E0582F540F81E0CE
:10022000541708F080E0382F360F81E0361708F0B9
:1002300080E0282F2E0F81E02E1708F080E0982F05
:100240009A0F81E09A1708F080E0810FB0930301C4
:10025000F093040170930501509306013093070158
:10026000209308019093090180930A0116BCFF9125
:10027000EF91BF91AF919F918F917F916F915F911E
:100280004F913F912F911F910F900FBE0F901F9094
:100290001895389A399A3A9A3B9A269A279A559AF3
:1002A000569A259A249A209A579A409A419A429AA5
:1002B000439A2E9A2F9A5D9A5E9A2D9A2C9A289A92
:1002C0005F9A08954098FC018A309105B8F5E65E82
:1002D000FF4F099440984198429823C0409A419A10
:1002E000429A439A0FC040984198429A43982E9858
:1002F0002F982BC04098419A429A1BC0409A419A2D
:10030000429843982E9A17C04098419A02C040984C
:100310004198429843982E982F9A0EC0409A419A3D
:10032000429A439A07C04098419802C04098419A27
:10033000429843982E982F985E980895409A419A33
:10034000429A439A2E9A2F9A5D9A5E9A08959F92A6
:10035000AF92BF92CF92DF92EF92FF920F931F93D3
:10036000809101019091020168EE73E019D3CB01F5
:100370006AE070E015D3A6DF2D9800E717E1C80109
:100380000197F1F72D9A809101019091020164E6A5
:1003900070E006D3CB016AE070E002D393DF2C98C3
:1003A000C8010197F1F72C9A70910301E0910401C3
:1003B000F0910501A0910601B0910701009108019B
:1003C0001091090190900A0180910B0120910C017C
:1003D00030910D0140910E0160910F01D0901001FC
:1003E000B0901101A0901201C72EC81A91E07C159F
:1003F00008F090E08E2F821B21E0E81708F020E043
:10040000582F591B91E0851708F090E0292B8F2F6A
:10041000831B31E0F81708F030E0E82EE21A91E093
:100420008E1508F090E0392B8A2F841B21E0A81745
:1004300008F020E0F82EF31A91E08F1508F090E014
:10044000292B8B2F861B31E0B81708F030E0682F7E
:10045000621B91E0861708F090E0392B802F8D19F0
:1004600021E0081708F020E0482F431B91E0841793
:1004700008F090E0292B812F8B1991E0181708F0D4
:1004800090E0382F321B21E0831708F020E0922BF8
:10049000892D8A19891789F4332379F4442369F45F
:1004A000662359F4FF2049F4EE2039F4553028F43E
:1004B000543021F582EE8C1508F580911B01909146
:1004C0001C01892B29F010921C0110921B0106C0FF
:1004D00081E090E090931C0180931B0170930B01CD
:1004E000E0930C01F0930D01A0930E01B0930F0166
:1004F00000931001109311019092120180911B0141
:1005000090911C01892B49F05D985E9888EB9BE0E7
:100510000197F1F72F9A5D9A06C02F9A5D9A88EBA2
:100520009BE00197F1F780910101909102016AE04F
:1005300070E036D2CB016AE070E032D2C3DE289898
:1005400000E717E1C8010197F1F7289A80910101AE
:10055000909102016AE070E023D2B4DE5F98C80196
:100560000197F1F75F9A1F910F91FF90EF90DF9045
:10057000CF90BF90AF909F900895282F30E02077C4
:100580003070A90173E0440F551F7A95E1F7220FEF
:10059000331F420F531F34E0559547953A95E1F7C5
:1005A0008F70840F0895E82FF0E040E050E08E2F28
:1005B0006AE0E9D1292F8E2F6AE0E5D1E82F3327B1
:1005C00027FD3095042E02C0220F331F0A94E2F754
:1005D000F22B4C5F5F4F4031510549F78F2F089543
:1005E00082DD80ED9ADD8EE098DD80E296DD88E0A8
:1005F00094DD46CD78DD80ED90DD80E08EDD40DD60
:1006000072DD81ED8ADD80E0AFDD282F30E02077DC
:100610003070A90163E0440F551F6A95E1F7220F7E
:10062000331F420F531FB4E055954795BA95E1F734
:100630008F70840F8093220180E096DD282F30E0B8
:1006400020773070A901A3E0440F551FAA95E1F768
:10065000220F331F420F531FE4E055954795EA954B
:10066000E1F78F70840F8093200180E07DDD282FDB
:1006700030E020773070A90173E0440F551F7A9560
:10068000E1F7220F331F420F531F24E05595479582
:100690002A95E1F78F70840F80931F0180E064DD5D
:1006A000282F30E020773070A90193E0440F551FC8
:1006B0009A95E1F7220F331F420F531FA4E055957F
:1006C0004795AA95E1F78F70840F80931D0180E014
:1006D0004BDD282F30E020773070A901F3E0440F84
:1006E000551FFA95E1F7220F331F420F531F74E095
:1006F000559547957A95E1F78F70840F8093230184
:1007000080E032DD282F30E020773070A90163E0EF
:10071000440F551F6A95E1F7220F331F420F531FF5
:10072000B4E055954795BA95E1F78F70840F8093A3
:100730001E0181E019DD282F30E020773070A901FB
:10074000A3E0440F551FAA95E1F7220F331F420F74
:10075000531FE4E055954795EA95E1F78F70840FB4
:10076000809321018DCCFF920F931F93F82E062FBB
:10077000142FB9DC80EDD1DC80E0CFDC812F13DFDA
:10078000CCDC802F10DFC9DC8F2D0DDFC6DC78DCE0
:100790001F910F91FF900895EF92FF920F931F9377
:1007A000182F062FF42EE22E9EDC80EDB6DC83E0BF
:1007B000B4DC812FF8DEB1DC802FF5DEAEDC8F2DCE
:1007C000F2DEABDC8E2DEFDEA8DC5ADC1F910F9140
:1007D000FF90EF900895AF92BF92CF92DF92EF9289
:1007E000FF920F931F939091030140910401709128
:1007F0000501F0910601B091070100910801E09018
:10080000090160910A018091130120911401E09186
:100810001501A0911601F0901701D0901801B09029
:100820001901A0901A01C92EC81A31E09C1508F0D0
:1008300030E0842F821B21E0481708F020E0582F79
:10084000531B91E0851708F090E0292B872F8E1B12
:1008500031E0781708F030E0182F121B91E0811773
:1008600008F090E0392B8F2F8A1B21E0F81708F051
:1008700020E0E82FE31B91E08E1708F090E0292B91
:100880008B2F8F1931E0B81708F030E0782F721BEA
:1008900091E0871708F090E0392B802F8D1921E027
:1008A000081708F020E0482F431B91E0841708F058
:1008B00090E0292B8E2D8B1991E0E81608F090E03E
:1008C000382F321B21E0831708F020E0922B6A19A1
:1008D000691789F4332379F4442369F4772359F4AD
:1008E000EE2349F4112339F4543028F4533091F5B0
:1008F00088EE8C1578F57EDE80911F0124E6829FBC
:10090000C001112420912001820F911D90930201BA
:100910008093010180910301809313018091040170
:100920008093140180910501809315018091060147
:10093000809316018091070180931701809108012F
:1009400080931801809109018093190180910A0117
:1009500080931A011F910F91FF90EF90DF90CF903D
:10096000BF90AF90089595DC3BDE44DE80916E0031
:10097000826080936E008DE787BD83E085BD7894AB
:10098000E6DC29DFFDCF87FB082E062687FD819553
:1009900067FD619519D00EF4919507FC8195089536
:1009A000AA1BBB1B51E107C0AA1FBB1FA617B70795
:1009B00010F0A61BB70B881F991F5A95A9F78095B1
:1009C0009095BC01CD010895991B79E004C0991F51
:1009D000961708F0961B881F7A95C9F78095089599
:0409E000F894FFCFB9
:00000001FF
